:0300000002000EED
:0C000E00787FE4F6D8FD75810B020055E8
:08019000020A0000020800123F
:10017C00438901758AA4758CFFC28DD28CD2A9D209
:04018C00AFD2AC2220
:03000B00020125CA
:10012500C0E0C0F0C0D075D000C000C004C005C09C
:1001350006C007758AA4758CFFC3E50B9509E5080C
:100145006480F8E50A6480985004D2CD8002C2CD5F
:10015500050BE50B7002050AAE0AFF7C007DA012B7
:10016500009A8C0A8D0BD007D006D005D004D0009C
:07017500D0D0D0F0D0E03241
:0500030012017C80FEEB
:10001A00020003E493A3F8E493A34003F68001F2F9
:10002A0008DFF48029E493A3F85407240CC8C333E7
:10003A00C4540F4420C8834004F456800146F6DFB6
:10004A00E4800B0102040810204080900190E47EB5
:10005A00019360BCA3FF543F30E509541FFEE493AB
:10006A00A360010ECF54C025E060A840B8E493A372
:10007A00FAE493A3F8E493A3C8C582C8CAC583CA9D
:10008A00F0A3C8C582C8CAC583CADFE9DEE780BE55
:010198000066
:10009A00C2D5EC30E709B2D5E4C39DFDE49CFCEE81
:1000AA0030E715B2D5E4C39FFFE49EFE1200D0C329
:1000BA00E49DFDE49CFC80031200D030D507C3E424
:0600CA009FFFE49EFE22F0
:1000D000BC000BBE0029EF8DF084FFADF022E4CC14
:1000E000F875F008EF2FFFEE33FEEC33FCEE9DECDD
:1000F000984005FCEE9DFE0FD5F0E9E4CEFD22ED23
:10010000F8F5F0EE8420D21CFEADF075F008EF2F6C
:10011000FFED33FD4007985006D5F0F222C398FD5D
:050120000FD5F0EA22FA
:00000001FF
