:100796005389F0438901E4F58AF58CC28DC28CC277
:0207A600A92286
:0B000E00AD07AC068C8CAF058F8A227A
:0907F900AF8CEFFEAD8AEDFF228A
:10073D00EF7011438901758AA4758CFFC28DD28C1F
:0A074D00D2A9D2AFEF24FF928C2254
:030000000203A157
:0C03A100787FE4F6D8FD7581600203E867
:1006C400003F0006005B004F0066006D007D0007E0
:1006D400007F006F0077007C0039005E00790071B4
:0206E400000014
:080310008E218F228C238D2425
:1003180078257C007D007BFF7A0679C47E007F22E9
:100328001200EEE521705CE52214B40800505490E8
:10033800034575F003A4C58325F0C5837302035DE7
:1003480002036102036502036902036D0203750279
:10035800037D020385C2A4800EC2A48012C2A480B9
:1003680016C2A4801AD2A4C2A3C2A28016D2A4C262
:10037800A3D2A2800ED2A4D2A3C2A28006D2A4D2B3
:10038800A3D2A2E52425E02425F808E6F5807F011C
:080398007E0012076E8546800D
:0103A000223A
:10076E00EF4E600F7D027C27DCFEDDFCEF1F70F08C
:03077E001E80EDED
:010781002255
:0B07DA00EF1FAC0670011E4C70F622F1
:10072200AB07AA06EB4A6012B2A57F017E00120750
:0B0732006EB2A5EB1B70ED1A80EA22EE
:0D07BA00011700021D0000C100021A00001E
:1007570053890F438910758B18758DFCC28FD28E04
:07076700D2ABD2AFC2BB22EE
:03001B0002080BCD
:07080B00758B78758DEC324E
:03000B00020619D1
:10061900C0E0C0F0C0D0758AA4758CFFE517C395FA
:100629001C5004D2908002C2900517E51775F0A0FE
:100639008485F017051EE51E7002051DD0D0D0F087
:03064900D0E032CC
:1007A800438901758AA4758CFFC28DD28CD2A9D2D7
:0207B800AF226E
:10042D001207A8751C06120802120782AE1DAF1E18
:10043D00E4FCFD7B507AC3F9F8C31201A85005E422
:10044D00F51DF51EE4FF12059E8F18E51B6408458A
:10045D001A7003751C08E51B645A451A7003751C48
:10046D000520B202C2A0E51864017008051BE51B4A
:10047D007002051A750C04AB1BAA1A7D017F0112BF
:10048D00067DE51CFB7A00750C047D017F021206CA
:03049D007D8099C6
:0307C700011F010E
:10059E00EF6003751F01E51F602530B10630B00313
:1005AE0020B31C7F0A7E0012076EE4F51F20B103F4
:1005BE007F012220B0037F022220B30F7F0322305F
:0D05CE00B10930B00630B303751F017F0086
:0105DB0022FD
:0607CB00C2A58F80D2A739
:0807D1007F027EEFDEFEDFFC7B
:0107D90022FD
:0A07E500C2A61207CBC2A70207D17B
:1006E600CFCDCFCECCCE1201537C007D0A12015362
:0406F600ED2430FFC0
:0A06FA00D2A61207CBC2A70207D157
:10070400AE07EEFB7A0064017004ED148009EB641B
:0E071400024A7009ED243F4480FF1207E522DF
:100782007F381207E57F0C1207E57F061207E57F27
:04079200010207E574
:0A07EF00AC03120704AF040206FA7F
:0606A1008B5C8A5D895E9E
:1006A700120704E4FDAB5CAA5DA95E8D8275830029
:0C06B700120114FF60061206FA0D80E923
:0106C3002214
:0A064C00EF24FFFDEE34FFFC7F0AEF
:080656008E0D8F0E8C0F8D102C
:10065E007F017E00E4FBEBC39510E50F6480F87418
:0E066E008098500AAC0DAD0E1201410B80E8D1
:01067C00225B
:04067D008A0A8B0B4F
:10068100120704AA0CEAFF7E00D3940074809480C0
:0F069100400D12064CAC0AAD0B1206E61A80E6BD
:0106A0002237
:040554008B828A8389
:10055800120704C3E58364809480400D7F2B120644
:10056800FA85834C85824D80107F2D1206FAC3E4EC
:100578009582F54DE49583F54CAA4BEAFF7E00D3AE
:10058800940074809480400D12064CAC4CAD4D1212
:0505980006E61A80E6F2
:01059D00223B
:040509008A508B5138
:10050D00120704AA52EAD39400748094804037EA0B
:10051D0024FFFDE434FFFC7F107E00120656AC5024
:10052D00AD51CFCDCFCECCCE120153EF540FFEC374
:10053D00940A74809480EE5004243080022437FF96
:06054D001206FA1A80BF3D
:010553002285
:0405DC008A558B565B
:1005E000120704AA57EAFF7E00D394007480948017
:1005F0004026EF24FFFDEE34FFFC7F02120656ACCE
:1006000055AD56CFCDCFCECCCE120153EF540124F1
:0806100030FF1206FA1A80CD3A
:0106180022BF
:0204A000AD07A6
:1004A200E4F55FF560C2B5C2B6FBEBC39408748095
:1004B200948050237E007480A803088006CEA2E7B1
:1004C20013CE13D8F8FFEDF582EF558224FF92B4D4
:1004D200D2B6C2B60B80D3E4FBEBC3941074809403
:1004E20080501ED2B6C2B630B7147E80E4A803088C
:1004F2008005CEC313CE13D8F94260EE425F0B8063
:06050200D8E55FFF7E005A
:0105080022D0
:09080200D288D2A8D2AFD2B222F2
:030003000201BE39
:1001BE00C0E0C0F0C083C082C0D075D000C000C007
:0D01CE0001C002C003C004C005C006C00788
:1001DB00751100751200751300751400751500303C
:1001EB00B2030202F57512037513E820B21EE51374
:1001FB00451260187F017E001207DAE513151370A4
:10020B00021512E513451270E20202F520B2030249
:10021B0002D57512017513F430B21EE51345126049
:10022B00187F017E001207DAE51315137002151201
:10023B00E513451270E20202F5751400C3E5149440
:10024B00047480948040030202D5751500C3E51534
:10025B00940874809480506D75120075133C20B215
:10026B001DE513451260177F017E001207DAE513B7
:10027B00151370021512E513451270E2806C75129E
:10028B000075131430B2167F0A7E001207DA0511BF
:10029B00D3E51194147480948040E9804D745825F3
:1002AB0014F8C000E6C313D000F6C3E5119408742C
:1002BB00809480400974582514F8E64480F6751133
:1002CB0000051580880514020247E55BF4655A604A
:1002DB0019751400C3E514940474809480500B7446
:0A02EB00582514F87600051480EA87
:1002F500D007D006D005D004D003D002D001D0005D
:0B030500D0D0D082D083D0F0D0E03206
:1003AD0002042DE493A3F8E493A34003F68001F235
:1003BD0008DFF48029E493A3F85407240CC8C33351
:1003CD00C4540F4420C8834004F456800146F6DF20
:1003DD00E4800B01020408102040809007BAE47EEF
:1003ED00019360BCA3FF543F30E509541FFEE49315
:1003FD00A360010ECF54C025E060A840B8E493A3DC
:10040D00FAE493A3F8E493A3C8C582C8CAC583CA06
:10041D00F0A3C8C582C8CAC583CADFE9DEE780BEBE
:0107CA00002E
:10001E00E709F608DFFA8046E709F208DFFA803EC4
:10002E0088828C83E709F0A3DFFA8032E309F608B1
:10003E00DFFA8078E309F208DFFA807088828C8319
:10004E00E309F0A3DFFA806489828A83E0A3F608CD
:10005E00DFFA805889828A83E0A3F208DFFA804CA7
:10006E0080D280FA80C680D4806980F2803380107E
:10007E0080A680EA809A80A880DA80E280CA8033E7
:10008E0089828A83ECFAE493A3C8C582C8CCC5835F
:10009E00CCF0A3C8C582C8CCC583CCDFE9DEE7802F
:1000AE000D89828A83E493A3F608DFF9ECFAA9F0AE
:1000BE00EDFB2289828A83ECFAE0A3C8C582C8CC04
:1000CE00C583CCF0A3C8C582C8CCC583CCDFEADE1D
:1000DE00E880DB89828A83E493A3F208DFF980CC7F
:1000EE0088F0EF60010E4E60C388F0ED2402B40478
:1000FE000050B9F582EB2402B4040050AF2323451F
:06010E00822390006E73D5
:10011400BB010CE58229F582E5833AF583E02250A0
:1001240006E92582F8E622BBFE06E92582F8E222EA
:0D013400E58229F582E5833AF583E4932204
:10014100EF8DF0A4A8F0CF8CF0A428CE8DF0A42ED2
:02015100FE228C
:10015300BC000BBE0029EF8DF084FFADF022E4CC90
:10016300F875F008EF2FFFEE33FEEC33FCEE9DEC59
:10017300984005FCEE9DFE0FD5F0E9E4CEFD22ED9F
:10018300F8F5F0EE8420D21CFEADF075F008EF2FE9
:10019300FFED33FD4007985006D5F0F222C398FDDA
:0501A3000FD5F0EA2277
:1001A800EB9FF5F0EA9E42F0E99D42F0EC6480C8CE
:0601B80064809845F0226E
:00000001FF
