:030000000205FBFB
:0C05FB00787FE4F6D8FD758144020642CA
:1008BA0041542B4349504D55583D310041542B4327
:1008CA0049505345525645523D312C383038300044
:1008250001430002370000023F0064023B006401FF
:0208350042007F
:1007D600C3E53C9428E53B64809480227C017D2C13
:1007E600AE37AF38120236ED4C22D2A5C2A6D2A73A
:1007F600C2C522AE3FAF407C00020236D2A5C2A6D9
:10080600C2A7D2C522C2A5D2A6D2A7C2C522D3E507
:0F0816003E9404748094802275391E753A1E2218
:10000E00438901758AA4758CFFC28DD28CD2A9D278
:04001E00AFD2AC228F
:03000B0002077178
:10077100C0E0C0F0C0D075D000C000C004C005C04A
:1007810006C007758AA4758CFFE543C395395004EB
:10079100D2A28002C2A2E543C3953A5004D2A380FB
:1007A10002C2A30543E54375F06E8485F043053825
:1007B100E53870020537AE37FF7C3A7D9812023674
:1007C1008C378D38D007D006D005D004D000D0D0DA
:0507D100D0F0D0E03281
:1002E50012000EE4F539F53A1207F0F53EF541F541
:1002F5003DF544E544600302048A20872312091171
:100305007FD07E071209437BFF7A0879BA1200264F
:100315007FE87E031209437BFF7A0879C61200261F
:1003250020931A7FD07E071209433093FD120539B9
:10033500D2C61205582093FA120539D2C61207E221
:10034500703212054E7D0A1202368D3E7D0A120765
:10035500F97C007D0A1202368D417D641207F98F02
:100365003DE5416401700AC2A5D2A6C2A7D2C580E7
:10037500031207F07C037DE81207E6600302040917
:10038500120543120897E54270047F0180027F0041
:100395001207D650047E0180027E00EE5F600205E2
:1003A50042E542640170047F0180027F001207D696
:1003B50050047E0180027E00EE5F60020542E54248
:1003C500640270047F0180027F001207D650047E0C
:1003D5000180027E00EE5F60020542E54264037023
:1003E500047F0180027F001207D650047E0180023F
:1003F5007E00EE5F600EE4F542C2A5D2A6C2A7D28A
:10040500C5754401AF3E7E00EF7005F53985393A73
:10041500EF4E6011D3EF9403EE648094805006751F
:10042500391485393AE53E24FB600C14600E24022C
:100435007010753928800875393C800375396485D5
:10044500393AE53D14600B1460201470357544028B
:1004550080331208145008753932753A19802612FE
:10046500080275393C753A3C801B12081450087512
:100475003A32753919800E12080B753A3C75393CBC
:100485008003853A39E5446401707C12081EC2C6B2
:100495001207E27006120897120543E54270047FC1
:1004A5000180027F00D3E53C943C1207DB40047ECB
:1004B5000180027E00EE5F60020542E54264017044
:1004C500047F0180027F00D3E53C943C1207DB40AA
:1004D500047E0180027E00EE5F60020542E5426413
:1004E5000270047F0180027F00D3E53C943C120733
:1004F500DB40047E0180027E00EE5F600AE4F54287
:100505001207F0F544D2C6E544640260030202F81E
:10051500AE37AF387C037DE8120236ED4C700F1212
:10052500054E7D641202368F3DEF7002F5441205CB
:10053500580202F8C2C67FE87E0312094322120957
:100545006C12018A8E3B8F3C221207038E3F8F402F
:030555007C002205
:100558001207F030C44B12081E30C40630A0030244
:1005680005F230C3191205F320C40B12080B753AB3
:100578002575392580F2E4F539F53A1205F330A0EE
:10058800697FF47E0112094320C40B1208027539F1
:1005980025753A2580F2E4F539F53A7FF47E018035
:1005A8004612081E30C3207F647E0012094320C40F
:1005B8000B12080B753A1C75391C80F2E4F539F5F5
:1005C8003A7F64FE12094330A0207F647E0012093E
:1005D8004320C40B12080275391C753A1C80F2E4DA
:1005E800F539F53A7F64FE120943227FF47E011241
:0305F80009432292
:1008370001250005300B0B0B0B0BC1000A26000B23
:10084700000B000B000B000B02230000022100002D
:10097F00E53625E02426F822E536C39405748094E5
:02098F008022C4
:08000300E59A30E0FBAF9B22FF
:10091100759A50538EFB75D7D075D6FF438E10D282
:0A092100AF53AFFE43AF01D2AC228A
:0B09A3008F9BE59A30E1FB539AFD2288
:1000260012020BFF600C1209A3740129F9E43AFAD3
:0C00360080EE7F0D1209A37F0A0209A3CF
:030043000206872B
:10068700C0E0C0D075D010E59A30E06B539AFEE514
:100697002445237013F536120987500C12097F760B
:1006A7000008760B053680EF859B35E535640A70C3
:1006B7002A300027F536E536C395255013743025C3
:1006C70036F8E6FF12097F760008A617053680E69A
:1006D700C200752300752401752500E525120989D7
:1006E700501530000AAF25052574302FF8A635E5DB
:0C06F70035643A7002D200D0D0D0E0325E
:10070300E52445236063E4F521F522F536C3E53698
:10071300940474809480505112097FE6FE08E6FF2A
:10072300640B4E6028EF640D4E6022AE21AF227C35
:10073300007D0A12022412097FE6FC08E624D0FD9C
:10074300EC34FFCD2FF522ED3EF5218018E4F5239F
:10075300F524F536120987501012097F76000876C2
:0D0763000B053680EF053680A4AE21AF22D5
:010770002266
:10094300EF4E601100007D027C0FDCFEDDFCEF1F2B
:0509530070EE1E80EBB8
:01095800227C
:1008F60053877F75985053890F438920758BFA75F6
:0B0906008DFAC2ABD28ED2AFD2AC2271
:0809AE008F993099FDC29922D6
:1008DA0012020BFF600C1209AE740129F9E43AFA0C
:0C08EA0080EE7F0D1209AE7F0A0209AEFD
:030023000209BC13
:0309BC00C29832AC
:0A085700020C00000408000000007D
:100862001209B6E50B240AF50BE4350AF50AE4355C
:1008720009F509E43508F508E47F887E13FDFCAB31
:100882000BAA0AA909A808D302027AE4F50BF50A11
:05089200F509F5082244
:0509B600007F19DFFEC7
:0109BB002219
:10095900C2B6D2B61209B61209B61209B61209B64A
:03096900C2B622F1
:0100220022BB
:1008970012095912088D20B70512086240F812088C
:1008A7008D30B70512086240F8850A0C850B0D12CA
:0308B700088D2287
:10096C00AC0CAD0DE41201517B7B7A14792E783DE1
:03097C0002004630
:10099100759D2075BCEA5397DFE4F5BD7F64FE02C7
:0209A100094308
:10092B00E4F5BD1209917F327E00120943E5BC301C
:08093B00E4FB53BCEFAFBD2249
:10004600EC4D6011E8497017ED33EC3304600DE4B4
:10005600FCFFFEFD22E933E8330470F80201F612D4
:1000660001C158046009E4CC2481500628500902D5
:1000760002002840030201FDC0E0EB4A7044B9804B
:1000860006D0E0FB0201ECEF4E701CBD8008EBFFD2
:10009600EAFEE9FD80EBE98DF0A4FEE5F002012F12
:1000A600E9CDF9EAFEEBFFEF89F0A4FCE5F0CE8995
:1000B600F0A42EFFE435F0CD89F0A42DFEE435F052
:1000C6008067EF4E7005BD80D780C3EF8BF0A4AC80
:1000D600F0EE8BF0A42CFCE435F0F8EF8AF0A42CBB
:1000E600E5F038FCE433CB8DF0A42CFCE5F03BF8CE
:1000F600EE8AF0A42CFCE5F038F8E433CF89F0A4BE
:100106002CFCE5F038CF3400CE89F0A42FFFE5F0C3
:100116003EFEE433C98DF0A42EFEE5F039CD8AF01B
:10012600A42FFFE5F03EFEE43DFD33D0E0FB500793
:100136000BBB000F020200EC2CFCEF33FFEE33FE8C
:06014600ED33FD0201D8BB
:10014C0075F020800E75F010800575F0087D007E2E
:10015C00007F003392D530D50312026CEC33401083
:10016C00EF33FFEE33FEED33FDEC33FCD5F0ED2237
:0E017C00E5F0247EA2D513CC92E7CDCEFF2273
:10018A00EDD2E7CD33EC3392D524814006E4FFFE6D
:10019A00FDFC22FCE4CFCECDCC24E0501174FF80CC
:1001AA00EDC3CC13CCCD13CDCE13CECF13CF047069
:0701BA00F030D5DE02026CFB
:1001C100E9D2E7C933E833F892D5EDD2E7CD33EC84
:0701D10033FC5002B2D522FD
:1001D800EC30E7100FBF000C0EBE00080DBD000488
:1001E8000BEB6014A2D5EB13FCED92E7FD2274FF34
:1001F800FCFDFEFF22E480F8A2D574FF13FC7D808D
:03020800E480EFA0
:100607000202E5E493A3F8E493A34003F68001F222
:1006170008DFF48029E493A3F85407240CC8C333F4
:10062700C4540F4420C8834004F456800146F6DFC3
:10063700E4800B0102040810204080900825E47E26
:10064700019360BCA3FF543F30E509541FFEE493B8
:10065700A360010ECF54C025E060A840B8E493A37F
:10066700FAE493A3F8E493A3C8C582C8CAC583CAAA
:10067700F0A3C8C582C8CAC583CADFE9DEE780BE62
:010861000096
:10020B00BB010689828A83E0225002E722BBFE02F1
:09021B00E32289828A83E4932224
:10022400EF8DF0A4A8F0CF8CF0A428CE8DF0A42EEE
:02023400FE22A8
:10023600C2D5EC30E709B2D5E4C39DFDE49CFCEEE3
:1002460030E715B2D5E4C39FFFE49EFE120290C3C9
:10025600E49DFDE49CFC800312029030D507C3E4C4
:060266009FFFE49EFE2252
:0E026C00C3E49FFFE49EFEE49DFDE49CFC22A3
:10027A00EB9FF5F0EA9E42F0E99D42F0EC6480C8FB
:06028A0064809845F0229B
:10029000BC000BBE0029EF8DF084FFADF022E4CC52
:1002A000F875F008EF2FFFEE33FEEC33FCEE9DEC1B
:1002B000984005FCEE9DFE0FD5F0E9E4CEFD22ED61
:1002C000F8F5F0EE8420D21CFEADF075F008EF2FAB
:1002D000FFED33FD4007985006D5F0F222C398FD9C
:0502E0000FD5F0EA2239
:00000001FF
