:030000000213DE0A
:0C13DE00787FE4F6D8FD758161021425CB
:1005010041542B43495053544152543D225443507A
:10051100222C223139322E3136382E342E31222CF2
:10052100383038300041542B43495053454E443DF7
:10053100340041542B43574A41503D2245535038D2
:10054100323636222C2235353535353535352200D2
:1005510030333030000000000000000000000000D7
:100561000000000000000000000000E0202020202A
:10057100202020202020202020202020202020207A
:100581002020202020202020202060A020202020AA
:10059100202020202020202020202020202020205A
:1005A100202020202020202020202020202020204A
:1005B100202020202020202020202020E0000000DA
:1005C100000000000000000000000000000000002A
:1005D100000000000000000000000000000000001A
:1005E1000000000000000000000000FF000000000B
:1005F10000002050A8A4444444A4A8405420020070
:1006010001000100010001000100050201000002DA
:1006110001051555555515050102000000000000A2
:1006210000000000000000000000000000000000C9
:10063100000000000000000000000000FF000000BA
:1006410000000000000000000000000000000000A9
:100651000000000000000000000000000000000099
:100661000000000000000000000000E3222222221E
:100671002222222222222222222222222222222259
:100681002222222222222222222222222222222249
:1006910062A2222223222222A262222222222222B8
:1006A1002222222222222222222222222222222229
:1006B100222222222222222222222222E3000000BE
:1006C1000000000000000000000000000000000029
:1006D1000000000000000000000000000000000019
:1006E1000000000000000000000000FF000000000A
:1006F10000000000000000000000000000000000F9
:1007010000000000007E818181899589818181813C
:100711008181B1B1B1B1B1818181818189958981B4
:1007210081817E0000000000000000000000000048
:10073100000000000000000000000000FF000000B9
:1007410000000000000000000000000000000000A8
:100751000000000000000000000000000000000098
:100761000000000000000000000000C744444444B1
:100771004444444444444444444444444444444438
:100781004444444444444444444444444444444428
:100791004444444444444444444444444444444418
:1007A1004444444444444444444444444444444408
:1007B100444444444444444444444444C700000041
:1007C1000000000000000000000000000000000028
:1007D1000000000000000000000000000000000018
:1007E1000000000000000000000000FF0000000009
:1007F1000000000070C82622C2424242C22224D810
:1008010050600088A8A888A8A888A8A888A8A8884F
:10081100A8A888A8A888A8A888A8A88888A8A88817
:1008210088A8A888A8A88888000000000000000007
:10083100000000000000000000000000FF000000B8
:1008410000000000000000000000000000000000A7
:100851000000000000000000000000000000000097
:100861000000000000000000000000070404040470
:100871000404040404040505040404040405050433
:100881000404040404040404040404040404040427
:100891000404040404040404040404040404040417
:1008A1000404040404040404040404040404040407
:1008B1000404040404040404040404040700000000
:1008C1000000000000000000000000000000000027
:1008D10000000000002070A82422242020202020D5
:1008E100202020202050880000000102010000008B
:1008F100000000000000000000FFABD5ABD5ABD578
:10090100ABD5ABD5ABD5ABD5ABD5AB763CFFABD58A
:10091100ABD5ABD5ABD5ABD5ABBD818181818142A7
:100921003CFFABD5ABD5ABBD8181818181BD8181DF
:10093100818181423C04020A2AAA2A0A020410087F
:1009410028A8A8A8A8A8A8A8A8A8A82808100000AE
:100951000000020A2AAAAA2A0A02000000000102D3
:100961000408F0804020100FF0080402010F10204D
:10097100408038649292623A2222226E92926428D6
:100981003000000000000000000000000000000036
:1016D400024D0000C181044830303030C100025155
:1016E4000002014F00015300014C0001500001436E
:0316F40000C10230
:10191000538E7F5389F0758A44758CFFC28DD28CAB
:09192000D2AFD2ACD2A9D2B92297
:03000B00021310CD
:10131000C0E0C0F0C083C082C0D075D000C000C0A3
:1013200001C002C003C004C005C006C007758A44DE
:10133000758CFF054EE54E7002054DAE4DFF7C03EA
:101340007DE812049DED4C70637F03121985AC0794
:10135000E412024E7B6F7A127983783C12013E12BE
:1013600002828F467F04121985AC07E412024E7B7D
:10137000A67A9B79C4783C12013EA804A905AA0666
:10138000AB07E4FFFE7DE07C401200491202828F31
:10139000477F01121985AC07E412024E7B6F7A1267
:1013A0007983783C12013E1202828F44E546640242
:1013B0007002D201AE4DAF4E7C277D1012049D8C81
:1013C0004D8D4ED007D006D005D004D003D002D02A
:0E13D00001D000D0D0D082D083D0F0D0E03257
:10099100C2C77F6412000ED2C7121941E55360032A
:1009A100020AC1D200D3E5529406E55164809480D5
:1009B100500DC3E5529402E5516480948050067550
:1009C1005100755202AE4DAF4E7C007D0A12049D5E
:1009D100ED4C70607557017558FF755908755AFAD5
:1009E1007B14FDFF1215D230021E7557017558FF99
:1009F100755909755A367B7FE4FD7F761215D27BD6
:100A0100FF7A05790112188B7557087558FF7559CA
:100A110005755A567B807D01E4FF1215D2AD52ED6A
:100A21002402F5577558FF755908755AD67B807F92
:100A31006E1215D2E55264044551700CE54664040A
:100A410070061217B4755301E55264024551700DD9
:100A5100E54664047007755302F54DF54EE55264A1
:100A6100064551700DE54664047007755303F54D55
:100A7100F54ED3E54794047480948040137F0512AA
:100A8100000E74FE2552F55274FF3551F551D20016
:100A9100C3E54794027480948050127F0512000EC2
:100AA10074022552F552E43551F551D200208010DF
:100AB1007F6412000E3080FD0552E552700205512F
:100AC100E55364016003020CDB30001E1217B4C24F
:100AD10000E4F54DF54E7557027558FF75590975C6
:100AE1005A3F7B44FD7F341215D2AE4DAF4E7C0090
:100AF1007D0512049DED4C6003020BA1E54C240F12
:100B0100FB7557037558FF755909755A737D02AF07
:100B11004C1215D2C3742E9550FFC374339550FBFC
:100B21007557027558FF755909755A69E4FD121513
:100B3100D2E5502445FFE550244AFB75570275580C
:100B4100FF755909755A5FE4FD1215D20550054C20
:100B5100AF4CEF3395E0FEEF240FFFE43EFED3EF01
:100B6100947DEE64809480401BE54C240FFB755707
:100B7100037558FF755909755A827D02AF4C1215DC
:100B8100D2E4F54CAF50EF3395E0FEEF2445FFE49E
:100B91003EFED3EF9478EE648094804003E4F550F8
:100BA100AE4DAF4E7C007D0A12049DED4C701A30A3
:100BB10002177BFF7A05792612188B7F2812000E07
:100BC1007B007A00794812188B20800E7F64120016
:100BD1000E3080FD1217B4E4F553AE4DAF4E7C00DC
:100BE1007D1412049DED4C7012E54FFB7A0075588F
:100BF100057559087D047F2A1214ECAE4DAF4E7C69
:100C0100007D1912049DED4C7012E546FB7A0075CA
:100C110058057559087D057F2A1214ECAE4DAF4E6B
:100C21007C007D1E12049DED4C7012E544FB7A00A0
:100C31007558057559087D067F2A1214ECAE4DAF23
:100C41004E7C007D0A12049DED4C703FAF46FED3F1
:100C5100EF9402748094804007300104C201154F63
:100C6100C3EF9402EE648094805007300104C20106
:100C7100054FAF4FC3EF940374809480400AD3EFC4
:100C81009406748094804003754F03AF477E00EF54
:100C910064037005754B308006E54F2430F54BC376
:100CA100EF9403EE648094805005754A318003759A
:100CB1004A30AF447E00D3EF9402748094804003A5
:100CC100754932EF64024E7003754930C3EF9402E7
:100CD100EE648094805003754931E5536402701EBF
:100CE1007FF412000E30000E1217B4C2007BFF7A9F
:100CF10005793312188B7F04120D6DE4F553E5531A
:100D01006403600302099D30000F7F01120D6D1213
:100D110017B4C200E4F54DF54E20020E7BFF7A05B3
:100D2100793312188B7F04120D6D30020B7BFF7A21
:100D310005790112188B8004E4F553227FE8120033
:100D41000E7BFF7A05792612188B7F2812000E7B05
:100D5100FF7A05795112188BE4F54DF54E7F01129A
:0C0D61000D6DE55370F21217B402099DED
:100D6D008F540543C3E5439468748094814003E434
:100D7D00F543E55424FE6013147003020E31146024
:100D8D000724036003020F7B020F37AC43E412020A
:100D9D004E121046A804A905AA06AB07E4FFFE7D76
:100DAD00807C3F120049C004C005C006C007AC439B
:100DBD00E412024E121030E4FBFA79A078411201D0
:100DCD003ED003D002D001D00012013EE4FBFA79EF
:100DDD0070784212004D1202828F4CAC43E4120225
:100DED004E121046A804A905AA06AB07E4FFFE7D26
:100DFD00807C3F120049C004C005C006C007AC434B
:100E0D00E412024E121046E4FBFA79A07841120169
:100E1D003ED003D002D001D00012013EE4FBFA799E
:100E2D0048020F71AC43E412024E121046E4FBFA75
:100E3D0079A0784112013EC004C005C006C007ACC0
:100E4D0043E412024E121046D003D002D001D0005E
:100E5D0012013EC004C005C006C007AC43E4120237
:100E6D004E121046D003D002D001D00012013EE444
:100E7D00FBFA7982784212004D1202828F4CE543C3
:100E8D0025E0FDE433FC120249121030E4FBFA793F
:100E9D00A0784012013EC004C005C006C007AC4397
:100EAD00E412024E121030E4FBFA798078411201FF
:100EBD003ED003D002D001D000120049C004C005BD
:100ECD00C006C007AF437E007C007D03120436AC24
:100EDD0006AD07EC120249121030E4FBFAF9784026
:100EED0012013EA804A905AA06AB07D007D006D06B
:100EFD0005D004120049C004C005C006C007E54373
:100F0D0075F004A4FDACF0EC120249121030A804E7
:100F1D00A905AA06AB07D007D006D005D00412004C
:100F2D0049E4FBFA79F07841803CAC43E412024E7F
:100F3D00121030E4FBFA79A0784112013EE4FBFA7D
:100F4D007982784212004D1202828F4CAC43E4122A
:100F5D00024E121046E4FBFA79A0784112013EE4EC
:100F6D00FBFA7920784212004D1202828F50C37421
:100F7D0080954CFFC374409550FD121714AE4DAFC4
:100F8D004E7C047DB012049DED4C7011C3E554945C
:100F9D0004748094805006E4F54CF550221219F13A
:100FAD00500CE554640470061217B4D20222AE4DF3
:100FBD00AF4E7C137D8812049DED4C700ED3E5541D
:100FCD0094037480948040030217B4308003020DA3
:0B0FDD006F3080FD1217B4E4F55322C2
:101941001219101211561217B47F01120D6D1218CF
:07195100A71218F60217B4FB
:1018A700759850538EBF538EFE53890F758BA07555
:0B18B7008DFFC2ABD28ED2AFD2AC22AC
:080003008F993099FDC299228A
:100026001203F0FF600C120003740129F9E43AFA96
:0C00360080EE7F0D1200037F0A02000321
:03002300021A00BE
:031A0000C2983257
:10000E00EF4E600F7D037C23DCFEDDFCEF1F70F0F6
:03001E001E80ED54
:0100210022BC
:101236000000000000000000002F00000000070072
:10124600070000147F147F1400242A7F2A120062EC
:101256006408132300364955225000000503000098
:1012660000001C224100000041221C000014083E20
:1012760008140008083E0808000000A060000008E6
:10128600080808080000606000000020100804023A
:10129600003E5149453E0000427F400000426151F8
:1012A6004946002141454B31001814127F10002792
:1012B60045454539003C4A49493000017109050355
:1012C60000364949493600064949291E0000363686
:1012D60000000000563600000008142241000014E9
:1012E60014141414000041221408FF8100000000A9
:1012F60000000000000000000000000000000000E8
:0A13060000000000000000000000DD
:1018C200EF4E60157D087C07ED1DAA0470011C4ACD
:0918D20070F6EF1F70EA1E80E7BA
:0118DB0022EA
:0919E000D2B4D2B5C2B5C2B422E2
:0719F900D2B4C2B5D2B52241
:0B19A9001217ED1219B4AF041217ED75
:0519B400D2B4C2B42210
:0717E600AC071219E07F7847
:1017ED00C2B4E4FEEEC3940874809480501BAD0720
:1017FD00530580ED64807004D2B58002C2B5EF252B
:09180D00E0FFD2B4C2B40E80DB8E
:0118160022AF
:0E19B9001217E61219B4E4FF1219A90219F967
:0E19C7001217E61219B47F401219A90219F97D
:10181700EF24B0FFEE33FEE4FDFC121832E4FDFCCA
:0B182700FFFE1218327F10E4FDFCFEF3
:10183200AB07AA06ED4C60030219C7AF031219B930
:011842002283
:02174C008F1CF0
:10174E00E4F9E9FF7E00C39408748094805023125C
:10175E001817E4F51DC3E51D948074809480500F16
:10176E00AF1C7E007D017C00121832051D80E6093B
:02177E0080D019
:011780002246
:1018DC00EF4E601500007D057C347BC3DBFEDCFC29
:0918EC00DDFAEF1F70EA1E80E72F
:0118F50022D0
:10196F00EF4E601100007D167C80DCFEDDFCEF1F6A
:05197F0070EE1E80EB7C
:011984002240
:041929008F5DA90520
:10192D007F017E00AD0119ED6009AD5D7C001204F3
:03193D003680F100
:011940002284
:04171400AC05AB076E
:10171800E4FAF555EC24FFFFE434FFFEEF7803CE3E
:10172800C313CE13D8F9FAEC5407FD7F0212192916
:101738008F55AF03AD02121843AF557E007D017C73
:041748000002183251
:10184300A907ED24B0FFE433FEE4FDFC121832E9EE
:1018530054F0C4540F7E004410FFE4FDFC12183210
:0C186300E9540FFF7E00E4FDFC02183287
:101958007F8D12182EE4FDFC7F14FE121832E4FD70
:07196800FC7FAFFE02183204
:10199800E4FDFC7F8D121828E4FDFC7FAEFE0218E2
:0119A800320C
:1017B400E4F9E9FF7E00C3940874809480502212F7
:1017C4001817E4F555C3E555948074809480500E41
:1017D4007D017C00E4FFFE121832055580E7098084
:0117E400D133
:0117E50022E1
:10178100E4F9E9FF7E00C394087480948050231229
:101791001817E4F50FC3E50F948074809480500FFF
:1017A1007D017C007F017E00121832050F80E60961
:0217B10080D0E6
:0117B3002213
:10163B00E4F561F9EB24E0F561EFD3947F748094CA
:10164B00804004E4FF0D0DE5606410603712184311
:10165B00E4F9E9C39406748094805028E56175F031
:10166B0006A42436F582E43412F583E58229F5824B
:10167B00E43583F583E493FF7E007D017C00121833
:04168B00320980CED2
:01168F002238
:0814EC008F548D558A568B5771
:1014F400E4F55CF55AE55AC395585065C3E558952B
:101504005A14FD7F0A121929AC56AD57CFCDCFCE50
:10151400CCCE1204487C007D0A1204488D5BE55C45
:101524007023E55814FFE55AC39F5019E55B701208
:10153400E559C313855AF0A42554FF8559607B20CF
:101544008016755C01E559C313855AF0A42554FF30
:10155400E55B2430FB855960AD5512163B055A8076
:0115640094F2
:011565002263
:0A1690008F088D098B0A8A0B890C64
:10169A00E4F50EAB0AAA0BA90C850E82758300121B
:1016AA000409FB6024850D60AD09AF0812163B746E
:1016BA00082508F508D39478748094804007E4F5E7
:0916CA000805090509050E80CA96
:0116D30022F4
:06146A008F188D198B1A8A
:10147000E4F51B121843E4F9E9C3941074809480D6
:10148000502AE51A75F040A424F0F582E43412F5F0
:1014900083E58229F582E43583F583E493FF7E00BA
:1014A0007D017C00121832051B0980CCE51904FD72
:1014B000AF18121843E4F9E9C39410748094805073
:1014C0002AE51A75F040A42410F582E43413F5835C
:1014D000E58229F582E43583F583E493FF7E007D80
:0B14E000017C00121832051B0980CCB3
:0114EB0022DE
:0415D2008F548B5651
:1015D600E4F55BF55CE5575407700BE557131313F9
:1015E600541FF55E800AE557131313541F04F55E66
:1015F6008D5EE55EC39557503BAD5EAF5412184302
:1016060085545DE55DC395565026AB58AA59A95A2F
:10161600055CE55CAE5B7002055B14F5828E831299
:101626000409FF7E007D017C00121832055D80D31F
:04163600055E80BE0F
:01163A00228D
:10115600E4FDFC7FAEFE121821E4FDFC7F40FE128A
:101166001832E4FDFC7FB0FE121832E4FDFC7F81EC
:10117600FE121832E4FDFC7FFFFE121832E4FDFC7D
:101186007FA1FE121832E4FDFC7FA6FE121832E49F
:10119600FDFC7FA8FE121832E4FDFC7F3FFE12180C
:1011A60032E4FDFC7FC8FE121832E4FDFC7FD3FE5C
:1011B600121832E4FDFCFFFE121832E4FDFC7FD566
:1011C600FE121832E4FDFC7F80FE121832E4FDFCAC
:1011D6007FD8FE121832E4FDFC7F05FE121832E4B9
:1011E600FDFC7FD9FE121832E4FDFC7FF1FE1218D9
:1011F60032E4FDFC7FDAFE121832E4FDFC7F12FEBB
:10120600121832E4FDFC7FDBFE121832E4FDFC7F8F
:1012160030FE121832E4FDFC7F8DFE121832E4FD1A
:10122600FC7F14FE121832E4FDFC7FAFFE0218327A
:10186F00A8077420088002C313D8FCF59D75BCE847
:0C187F00EF240242BC759750E4F5BD2236
:10198500E4F5BD12186FE5BC30E4FBE4F5BCF59D4C
:03199500AFBD22C1
:1016F700012100142300000000000000000000008A
:0C170700000000000000000000012200B3
:0819E900E59A30E0FBAF9B2200
:1018F600759A50538EFB75D7E875D6FF438E10D276
:0A190600AF53AFFE43AF01D2AC2295
:0B19D5008F9BE59A30E1FB539AFD2246
:10188B001203F0FF600C1219D5740129F9E43AFA2E
:0C189B0080EE7F0D1219D57F0A0219D5CE
:030043000215663D
:10156600C0E0C0D075D010E59A30E05B539AFE8596
:101576009B41E52164027026F542E542C395215060
:101586001774372542F8E6FFE54225E02423F8766E
:101596000008A617054280E2752100752201AF41B9
:1015A6007E00EF644B7010E5216401700A743725E4
:1015B60021F8A641752102EF644F4E700A74372553
:0C15C60021F8A641752101D0D0D0E03200
:0819F100E5226002D322C322AB
:100046000202EEE86480F8E933E83360110460F0F8
:10005600ED33EC337009E8FCE9FDEAFEEBFF220420
:1000660060DED3EB9FEA9EE99DE8C2E78CF0C2F71B
:1000760095F0400CE8CCF8E9CDF9EACEFAEBCFFBE7
:100086001202B985D0F05804700320D5B3E8047085
:10009600075002B2D50202F892D5EC0460F7E4CC20
:1000A600C0E0C398F8603B94186008400DD0E0FBB0
:1000B6000202D0E4FBFAC9FC8028E830E406E4C971
:1000C600FBE4CAFCE830E305E4C9CACBFCE8540704
:1000D6006010F8C3E913F9EA13FAEB13FBEC13FC0F
:1000E600D8F130F52FC3E49CFCEF9BFFEE9AFEEDB2
:1000F60099FDD0E0FBEF4E4D4C701222DB0302025D
:10010600F5EC2CFCEF33FFEE33FEED33FDED30E77F
:10011600EB0202D0EF2BFFEE3AFEED39FDD0E0FB0D
:1001260050130BBB00030202F8ED13FDEE13FEEFB6
:0801360013FFEC13FC0202D0E0
:10013E00EC4D6011E8497017ED33EC3304600DE4BB
:10014E00FCFFFEFD22E933E8330470F80202EE12E2
:10015E0002B958046009E4CC2481500628500902E3
:10016E0002F82840030202F5C0E0EB4A7044B98061
:10017E0006D0E0FB0202E4EF4E701CBD8008EBFFE0
:10018E00EAFEE9FD80EBE98DF0A4FEE5F002022720
:10019E00E9CDF9EAFEEBFFEF89F0A4FCE5F0CE899C
:1001AE00F0A42EFFE435F0CD89F0A42DFEE435F059
:1001BE008067EF4E7005BD80D780C3EF8BF0A4AC87
:1001CE00F0EE8BF0A42CFCE435F0F8EF8AF0A42CC2
:1001DE00E5F038FCE433CB8DF0A42CFCE5F03BF8D5
:1001EE00EE8AF0A42CFCE5F038F8E433CF89F0A4C5
:1001FE002CFCE5F038CF3400CE89F0A42FFFE5F0CB
:10020E003EFEE433C98DF0A42EFEE5F039CD8AF022
:10021E00A42FFFE5F03EFEE43DFD33D0E0FB50079A
:10022E000BBB000F0202F8EC2CFCEF33FFEE33FE9B
:06023E00ED33FD0202D0C9
:1002440075F020800E75F010800575F0087D007E35
:10025400007F003392D530D5031204D3EC33401021
:10026400EF33FFEE33FEED33FDEC33FCD5F0ED223E
:0E027400E5F0247EA2D513CC92E7CDCEFF227A
:10028200EDD2E7CD33EC3392D524814006E4FFFE74
:10029200FDFC22FCE4CFCECDCC24E0501174FF80D3
:1002A200EDC3CC13CCCD13CDCE13CECF13CF047070
:0702B200F030D5DE0204D399
:100FE8003A70FA83BCAAE9E43E81E0F8BF9DE9E6DD
:100FF8003F80000039283C1ABB9969663DA335E358
:10100800BF255DE73FC90FDB418DDBCCC44936EE18
:1010180045C9913FC5B0F83D3F800000C317F5347E
:10102800452FFA73C60AFDDD1210D704A2E1920318
:101038001420E015900FE874041203A38026121000
:10104800D730E102B20320E0EB8C558D568E578FD6
:1010580058900FFC74041203A3A855A956AA57ABBD
:101068005812013EED4C6007300304EC6480FC220A
:101078001210D7C0E08C558D568E578F589010207F
:1010880074031203A3A855A956AA57AB5812013ED8
:10109800ECC555FCEDC556FDEEC557FEEFC558FF2E
:1010A80090101074031203A3D082A855A956AA570A
:1010B800AB58E58230E007120306B20380A6EFCBF7
:1010C800FFEECAFEEDC9FDECC8FC1203068095EDE3
:1010D80033EC547FCC33920324605007D0E0D0E047
:1010E8000202EE7B837AF97922783E12013EEDF90D
:1010F80033ECF83324815011EFFBEEFA120282121E
:101108000244ECB2E7FC12004DED33EC33602F24BF
:1011180003F8C313FCED92E7FDE82481E4501FECCB
:10112800F8EDF9EEFAEFFB120282EF04C2E0FCF5EB
:101138008212024EECB2E7FC12004DE58203FAED92
:0E11480033EC3360071413FCED92E7FDEA224E
:1002B900E9D2E7C933E833F892D5EDD2E7CD33EC8B
:0702C90033FC5002B2D52204
:1002D000EC30E7100FBF000C0EBE00080DBD00048F
:1002E0000BEB6014A2D5EB13FCED92E7FD2274FF3B
:1002F000FCFDFEFF22E480F8A2D574FF13FC7D8094
:03030000E480EFA7
:100303000202F8EC5D046005E8590470030202EE92
:100313001202B9580460F6EC4860F2EC7004FDFE7A
:10032300FF22C860DB2481C85009C39860025006CD
:100333000202F59850CAF582E9294B4A7005AB824F
:100343000202E475F0007C1A7880C3EF9BEE9AED0D
:1003530099400DC3EF9BFFEE9AFEED99FDE842F045
:10036300DC23ACF0D0E0FFD0E0FED0E0FDAB822098
:10037300E7101BEB60BAEC2CFCEF33FFEE33FEED22
:1003830033FD0202D0E803F830E705C0F075F00052
:10039300EF2FFFEE33FEED33FD40B830E7C280AA06
:1003A300C0E0EFFBEEFAEDF9ECF812013ED0E0F518
:1003B300F0EFFBEEFAEDF9ECF81204E1A3A3A3A32B
:1003C300E8C0E0E9C0E0EAC0E0EBC0E0C0F0120141
:1003D3003E1204F1A3A3A3A312004DD0F0D0E0FB7F
:0D03E300D0E0FAD0E0F9D0E0F8D5F0D42257
:1013EA00020991E493A3F8E493A34003F68001F27F
:1013FA0008DFF48029E493A3F85407240CC8C33304
:10140A00C4540F4420C8834004F456800146F6DFD2
:10141A00E4800B01020408102040809016D4E47E78
:10142A00019360BCA3FF543F30E509541FFEE493C7
:10143A00A360010ECF54C025E060A840B8E493A38E
:10144A00FAE493A3F8E493A3C8C582C8CAC583CAB9
:10145A00F0A3C8C582C8CAC583CADFE9DEE780BE71
:0117130000D5
:1003F000BB010689828A83E0225002E722BBFE020B
:09040000E32289828A83E493223D
:10040900BB010CE58229F582E5833AF583E02250A8
:1004190006E92582F8E622BBFE06E92582F8E222F2
:0D042900E58229F582E5833AF583E493220C
:10043600EF8DF0A4A8F0CF8CF0A428CE8DF0A42EDA
:02044600FE2294
:10044800BC000BBE0029EF8DF084FFADF022E4CC98
:10045800F875F008EF2FFFEE33FEEC33FCEE9DEC61
:10046800984005FCEE9DFE0FD5F0E9E4CEFD22EDA7
:10047800F8F5F0EE8420D21CFEADF075F008EF2FF1
:10048800FFED33FD4007985006D5F0F222C398FDE2
:050498000FD5F0EA227F
:10049D00C2D5EC30E709B2D5E4C39DFDE49CFCEE7A
:1004AD0030E715B2D5E4C39FFFE49EFE120448C3A6
:1004BD00E49DFDE49CFC800312044830D507C3E4A1
:0604CD009FFFE49EFE22E9
:0E04D300C3E49FFFE49EFEE49DFDE49CFC223A
:1004E100E493FC740193FD740293FE740393FF2261
:1004F100E493F8740193F9740293FA740393FB2261
:00000001FF
